:020000040800F2
:10000000005000202D770008297700082977000884
:1000100029770008297700082977000800000000E8
:100020000000000000000000000000002977000828
:1000300029770008000000002977000829770008C8
:100040002977000829770008297700082977000810
:100050002977000829770008297700082977000800
:1000600029770008F103000829770008297700089C
:1000700029770008297700082977000829770008E0
:1000800029770008297700082977000829770008D0
:10009000297700082977000829770008110400084B
:1000A00029770008297700082977000829770008B0
:1000B00029770008297700082977000829770008A0
:1000C0002977000829770008297700082977000890
:1000D00029770008915E0008496100082977000827
:1000E0002977000829770008297700080000000018
:1000F0000000000000000000000000000000000000
:1001000000000000000000005FF808F1044B054803
:100110001B1A062B02D9044B03B11847704700BFC6
:10012000B7000020B4000020000000000549064888
:10013000091A891001EBD171491002D0034B03B1A8
:1001400018477047B4000020B400002000000000F1
:1001500010B5064C237843B9FFF7D8FF044B13B111
:100160000448AFF300800123237010BDB8000020C5
:1001700000000000DCC2000808B5084B1BB10849AC
:100180000848AFF300800848036813B9BDE8084089
:10019000CCE7064B002BF9D09847F7E700000000AA
:1001A000BC000020DCC20008B000002000000000FD
:1001B000134B002B08BF114B9D46A3F5803A00213D
:1001C0008B460F461148124A121A08F027FB0D4BB6
:1001D000002B00D098470C4B002B00D098470020F4
:1001E000002104000D000B4808F0B2FA08F0DEFA16
:1001F0002000290000F086FF08F0B0FA0000080097
:10020000000000000000000000000000B800002016
:10021000EC1300208587000810B5044640F26B31CE
:1002200004F02DF804F1100204F16001002002F83E
:10023000010B8A424FF00003F9D1F022A4F860309C
:10024000A4F86230A4F8642084F8663084F867303B
:10025000204610BD222A70B506460C460ED104F089
:1002600021F820280CD904F1210514F8011F30468B
:1002700004F05AF8AC42F8D1002070BD042070BDE3
:10028000052070BDF7B50D460824002601272B0672
:100290004FF001024FF000030DF10701084804F18F
:1002A000FF344CBF8DF807708DF807606D0002F0C9
:1002B00067FC14F0FF04EDB2E9D103B0F0BD00BF5C
:1002C0003403002080F8671070470000094B1B784A
:1002D000622B0BD100F10F0300F130025F2103F814
:1002E000011F9342FBD12123A0F860300023A0F826
:1002F00062307047540D002090F8673070B50446A6
:10030000B0F860502BB12DB980F86650FFF7DEFFD2
:1003100015E025B12B4802F057FC054614E003F028
:10032000E3FF60B1284B1B78A3BB012384F8663040
:10033000B4F86430A4F860300023A4F86230B4F854
:100340006030002B3DD0E5E7082D3AD994F86630AF
:1003500033B1B4F862305F210133A4F8623006E0B3
:10036000B4F862305A1CA4F862202344197C204659
:10037000FFF788FFB4F86220B4F86030083D9A4275
:10038000ADB2E1D30023A4F86230A4F8603084F861
:10039000663070BD84F8665004F10F0604F1300534
:1003A000204603F0E7FF06F8010FB542F8D10749F0
:1003B00000235A5C0133272B05F8012FF9D148237C
:1003C000B8E770BD34030020190F0020808E0008AC
:1003D00008B503F067FF2323B0FBF3F080B208BD3C
:1003E00001EB4101890001F51671A0F86410704716
:1003F00008B5082007F0D2F838B1044804F0BCFF73
:10040000BDE80840082007F0D7B808BD3403002035
:1004100008B5202007F0C2F838B1044805F060F8AC
:10042000BDE80840202007F0C7B808BD340300200D
:100430002DE9F04786B0684606F0BBFF01211D207C
:1004400006F01CFC0121964806F0F4FF03238DF80A
:1004500002304FF4C053ADF8003069461023914884
:100460008DF8033006F053FF00224FF400618D48F1
:1004700006F0BDFF00224FF480518A4806F0B7FF16
:1004800000230193019BB3F5007F02D2019B01334E
:10049000F7E74FF4C053042669468248ADF80030B0
:1004A0008DF8036006F033FF002006F063FB0121A6
:1004B0004FF4000006F0EEFB4FF4407003241025CB
:1004C00006F030FE4FF02008694677488DF802406C
:1004D0004027ADF800808DF8035006F018FF6946FC
:1004E00071488DF80240ADF800708DF8035006F0A9
:1004F0000EFF802369466C48ADF800308DF802404D
:100500008DF803604FF4807A06F001FF6946664873
:100510008DF80240ADF800A08DF8035006F0F7FE0C
:10052000694660488DF80240ADF800708DF80350C0
:1005300006F0EDFE69465B488DF802408DF80360D9
:100540004FF48049ADF8005006F0E1FE6946574887
:100550008DF80240ADF800908DF8035006F0D7FEFC
:100560006946514808278DF802408DF80360ADF8C0
:10057000005006F0CCFE69464B488DF802408DF8DD
:100580000360ADF8007006F0C2FE6946454806F00B
:10059000BEFE4FF40056694644488DF80240ADF85F
:1005A00000608DF8035006F0B2FE4FF40073694608
:1005B0003D488DF80240ADF800308DF8035006F04C
:1005C000A6FE4FF4805369463748ADF800308DF8E9
:1005D00002408DF8035006F09AFE694632488DF8C5
:1005E0000240ADF800608DF8035006F090FE022343
:1005F00069462D48ADF8003001268DF802408DF88F
:10060000035006F084FE694627488DF80240ADF895
:1006100000608DF8035006F07AFE694621488DF897
:100620000240ADF800A08DF8035006F070FE694658
:100630001D488DF80240ADF800908DF8035006F08B
:1006400066FE4FF4004369461748ADF800308DF858
:1006500002408DF8035006F05AFE2146304606F05F
:1006600019FF052100200024029706F013FF0DEB6F
:100670000700CDF810808DF80C408DF80D508DF8E6
:100680000E6006F031FF0DEB05008DF814408DF87B
:1006900015708DF8166006F027FF06B0BDE8F087EC
:1006A0000002300000080140000C01400010014031
:1006B00037B5092301248DF800300F25172368462C
:1006C0008DF804308DF801408DF802508DF803400C
:1006D00006F032FD01A88DF805408DF806508DF822
:1006E000074006F029FD03B030BD000007B5032325
:1006F0008DF806301023ADF8043001B9042301A9A8
:1007000003488DF8073006F002FE03B05DF804FBE5
:10071000000C01400A460248202106F068BE00BFD6
:10072000000C01400A460248402106F060BE00BFAE
:10073000000C014008B58021034806F042FE431E2C
:100740005842584108BD00BF000C01400A4602480B
:100750004FF4807106F04BBE000C01400A4602487F
:10076000402106F044BE00BF0008014008B510213A
:10077000034806F026FE431E5842584108BD00BFFC
:10078000000801400A4602484FF4804106F02FBE9F
:100790000010014008B51021034806F012FE431E68
:1007A0005842584108BD00BF000C014008B508215F
:1007B000034806F006FE431E5842584108BD00BFDC
:1007C000000C01400A460248102106F010BE00BF8E
:1007D000000C01400A460248082106F008BE00BF8E
:1007E000000C01400A4602484FF4005106F0FFBDDC
:1007F000001001400A4602484FF4007106F0F7BDB0
:10080000000C01400A4602484FF4805106F0EFBD4B
:10081000000C01400A4602484FF4005106F0E7BDC3
:10082000000C01400A460248022106F0E0BD00BF6C
:10083000000C01400A460248012106F0D8BD00BF65
:10084000000C01400A4602484FF4807106F0CFBD0B
:1008500000080140704700000A4602484FF48041FA
:1008600006F0C5BD000C01400A4602484FF40041A5
:1008700006F0BDBD000C0140024B18460138FDD802
:10088000704700BFBFD4010040F60F63184601381F
:10089000FDD870470C235943013908460138FDD86B
:1008A000704700BF00BF00BF7047024630B500244C
:1008B0000025E2E8024500F1500102F8014B8A42AE
:1008C0004FF00003F9D142F20F72A0F87430A0F893
:1008D0007630A0F87830A0F87A2080F87C3080F864
:1008E0007D3080F87E3080F87F3080F8803080F86E
:1008F000813030BD0023A0F8763080F87C3080F85D
:100900007D3080F87F30A0F8783042F20F73A0F885
:100910007A30704700000000D0B530A3D3E900233F
:100920004FF6FF774FF0FF36044603C8304039409A
:100930005040594003F006FA032827D9D4E90001B2
:1009400028A3D3E90023304039405040594003F0F8
:10095000F9F903281AD9D4E9000124A3D3E9002323
:10096000304039405040594003F0ECF903280FD98A
:10097000D4E900011FA3D3E900233040394050409F
:10098000594003F0DFF9032802D9D0BD402300E02D
:10099000202384F87C30B4F8743003F2A51292B2AC
:1009A000B2F5107FA4F8763001D3A3F19B02A4F82E
:1009B000782003F16C0292B2B2F5107F07D3A3F551
:1009C000EA73A4F87A30044B00221A60D0BDA4F870
:1009D0007A20F8E7AFF300801C0F002057D77FF78D
:1009E000D7D50000F5F75F7F55D70000FD7DD55DB9
:1009F0007D7F00005F5DF5D5FF7D00002DE9F043B0
:100A0000DFF8ECE10027BC467646FCB2A24240F299
:100A1000EC8083F800C000EBD10401F00708257AD0
:100A20001EF8084001372540CC4304F0070445FA7E
:100A300004F44D1CADB2B5F5107F24BFA1F23F21E7
:100A40008DB2E4011C704FFA84F800EBD50105F07B
:100A50000704097A345D01330C40E94301F00701D2
:100A600044FA01F16C1C1FFA84F9B9F5107F28BF14
:100A7000A5F23F2548EA811128BF1FFA85F94FFAF0
:100A800081F803F8018C00EBD90109F007050C7A15
:100A9000715D0C406FEA090101F0070144FA01F1B0
:100AA00009F1010448EA41111FFA84F8B8F5107FF2
:100AB00024BFA9F23F241FFA84F849B203F8011CAD
:100AC00000EBD80408F00709257A16F809402540FC
:100AD0006FEA080404F0070445FA04F441EA041438
:100AE00008F101011FFA81F9B9F5107F24BFA8F2BE
:100AF0003F211FFA81F964B203F8014C00EBD901E0
:100B000009F007080D7A16F8081029406FEA090560
:100B100005F0070541FA05F544EAC50509F10104A8
:100B20001FFA84F8B8F5107F24BFA9F23F241FFAFA
:100B300084F86DB203F8015C00EBD80108F00709F6
:100B40000C7A16F809100C406FEA080101F0070151
:100B500044FA01F108F101041FFA84F9B9F5107F94
:100B600028BFA8F23F2445EA810128BF1FFA84F973
:100B700049B203F8011C00EBD90409F00708257AF3
:100B800016F8084025406FEA090404F0070445FA06
:100B900004F441EA440409F101011FFA81F8B8F5AF
:100BA000107F24BFA9F23F211FFA81F864B203F835
:100BB000014C00EBD80108F007090D7A16F809106E
:100BC0000D406FEA080101F0070145FA01F10C43FD
:100BD00008F1010189B2B1F5107F28BFA8F23F21C9
:100BE00003F8014C28BF89B20FE7BDE8F08300BFCE
:100BF000A78E000880F87E10704700000A46222366
:100C00000121014801F072B9C805002073B50446FE
:100C1000B0F87400894EC21000F0070321B1A51886
:100C2000F65C2B7A334304E0F55CA3181B7A23EAC5
:100C3000050322441372D4E9002392185B4109B1E1
:100C400042F00102C4E9002394F87F301BB920462A
:100C5000FFF762FE1BE0B4F8761001F23E239BB270
:100C6000B3F5107F01F1020292B224BF8B1E9BB23A
:100C7000B2F5107F24BFA1F23E2292B2934202D27B
:100C8000834204D801E08342E1D98242DFD2B4F842
:100C90007420B4F87A309A4240F0BB8094F87C30EB
:100CA00004F1510584F8503021222B46B4F8781015
:100CB0002046FFF7A3FE94F87C30402B59D101A8C1
:100CC00004F066F90DF107030DF10602294601A8AB
:100CD00004F08CF994F87E209DF806309A4240F09A
:100CE0009580002394F8502084F87D3084F880307B
:100CF0009DF807301A4384F850200A2B30D8DFE8DB
:100D000003F01E222B2F2F2F0610102F100004F19E
:100D100050012046FFF772FF022384F87F30002342
:100D20000AE094F87F30022B70D104F15001204684
:100D3000FFF764FF9DF8073084F8813066E094F88F
:100D40007F30012B04D104F150012046FFF756FFFC
:100D5000012384F87F3059E094F87F30012B55D17E
:100D6000204604F15001FFF749FF2046FFF7C2FD7E
:100D70004CE0202B0DD104F150012046FFF73EFF3F
:100D8000012384F87F30002384F87D3084F880309C
:100D90003CE094F87F30002B38D094F87D3001335C
:100DA000DBB20C2B84F87D3006D92548012101F0F7
:100DB000D3F82046FFF79EFD94F87F30012B18D121
:100DC00094F8803004F15002042B8DBF20230133AE
:100DD000DBB284F8503087BF002384F8803084F879
:100DE000803084F8503001212223154801F07EF82C
:100DF0000CE0022B0AD194F881303BB1214643F03C
:100E0000400301F8503F2046FFF7F8FE002384F826
:100E10007C30B4F8743094F87F1001339BB2B3F592
:100E2000107F28BF00230031A4F8743018BF0121BF
:100E3000044802F0F9F802B070BD00BFA78E0008A8
:100E4000C80500203403002010B504464FF47A7121
:100E500003F015FA04F1100204F1D801002002F8A1
:100E6000010B8A424FF00003F9D14822A4F8D83090
:100E7000A4F8DA30A4F8DC2084F8DE30204610BD77
:100E800008B5B0F8D83013B903F02EFA00B101203C
:100E900008BD442A70B506460C460ED103F002FA8E
:100EA00043280CD9651E433415F8011F304603F062
:100EB0003BFAA542F8D1002070BD042070BD05208A
:100EC00070BD0000F7B50D460824002601272B064B
:100ED0004FF001024FF000030DF10701084804F143
:100EE000FF344CBF8DF807708DF807606D0001F07E
:100EF00047FE14F0FF04EDB2E9D103B0F0BD00BF2E
:100F00003403002070B5B0F8D850044625B1274806
:100F100001F05AFE054613E003F0E6F960B1244BF8
:100F20001B789BBB012384F8DE30B4F8DC30A4F8D6
:100F3000D8300023A4F8DA30B4F8D830ABB3E6E701
:100F4000082D32D994F8DE3033B1B4F8DA30AA2162
:100F50000133A4F8DA3006E0B4F8DA305A1CA4F809
:100F6000DA202344197C2046FFF7ACFFB4F8DA20DE
:100F7000B4F8D830083D9A42ADB2E1D30023A4F8CA
:100F8000DA30A4F8D83084F8DE3070BD84F8DE5052
:100F900004F1530604F10F05204603F0EBF905F8C0
:100FA000010FAE42F8D14423C1E770BD34030020E5
:100FB000190F002001EB41014908483189B29629F7
:100FC0008ABF9623A0F8DC10A0F8DC30704708B583
:100FD00003F068F94423B0FBF3F0C0B208BD000091
:100FE000014800F0AFBC00BFC805002038B531484B
:100FF00001F0A6FE304800F0B5FC304B304C1B78B9
:101000002BB12378012B02D12E4802F067FA2E4B28
:101010002E4D1B7873B12378022B0BD12B784BB953
:101020002B4B1B781BB12B4805F0DCFB02E02A4858
:10103000FFF762F9294B1B782BB12378032B02D1E0
:10104000274802F069F8274B1B782BB12378042B33
:1010500002D1254802F00CFD244B1B782BB12378DC
:10106000052B02D1224804F01DFE224B1B7833B120
:101070002378062B18D02048FFF702FFA0B92B7861
:101080005C3BDBB2082B08D840F2411222FA03F392
:10109000DB0702D5194803F01BFF237843B9BDE8ED
:1010A0003840174805F01ABC1348FFF72BFFE6E756
:1010B00038BD00BF34030020C80500200800002010
:1010C000040800205804002007000020540D0020D0
:1010D000180F002034080020200F002005000020F9
:1010E0007C0E002009000020EC08002004000020F5
:1010F000B00700200A000020CC06002008080020CD
:10110000C001002008B5FFF76BFFFFF76FFFFCE79A
:1011100008B51C4801F0A1F81B4802F069F81B480B
:1011200002F09FFA1A4803F023FE1A4805F038F936
:101130001948FFF7BAFB1948FFF76EF8184803F093
:101140002DF9184801F094FF174802F021FE1748C6
:1011500002F031FC164802F0FBFC164804F04CFD8E
:101160001548FFF771FE154803F02EFE144805F0F0
:10117000A3FB144800F02AF8BDE80840124801F02B
:101180009BBC00BF000A002058040020F802002089
:101190009003002034080020F00D0020200F0020D4
:1011A000580D00207C0E0020D0040020EC08002008
:1011B00070010020B0070020CC06002008080020A5
:1011C000C0010020C805002034030020024610B5ED
:1011D00000F58071002402F8014B8A424FF00003B1
:1011E000F9D180F8003180F8013180F8023180F8BF
:1011F000033110BD1FB570228DF80E208278E023D8
:101200008DF80F2000228DF80C300092042303AAE1
:1012100001218DF80D3005F0A8F805B05DF804FB4C
:101220001FB57F228DF80A208278E0238DF80B20ED
:1012300000228DF808308DF80C1005230092012152
:1012400002AA8DF8093005F090F805B05DF804FBAE
:101250002DE9F047824686B05C4801F0F8FE002296
:101260008DF80B205A4AE0238DF8083011780D23B1
:101270008DF8093001238DF80A30914609B18DF8B7
:101280000B30544B1A7898462AB19DF80B3043F036
:1012900002038DF80B30504F3B782BB19DF80B308B
:1012A00043F004038DF80B304C4E33782BB19DF88E
:1012B0000B3043F008038DF80B30494D2B782BB1E0
:1012C0009DF80B3043F010038DF80B30454C23781C
:1012D0002BB19DF80B3043F020038DF80B30424BBF
:1012E0003A481B788DF80C30404B1B788DF80D3048
:1012F00001F070FC28B19DF80D3043F004038DF827
:101300000D30324801F063FC28B19DF80D3043F0F8
:1013100008038DF80D3099F800302BB1344802F0F5
:1013200098F98DF80E0001E08DF80E3098F8003035
:10133000A3B1304B1B7843B12F4805F067F98DF806
:101340000F002D4805F06AF905E00A232B488DF8B7
:101350000F30FFF73DF88DF8100003E08DF80F30E7
:101360008DF810303B782BB1254801F039FF8DF80E
:10137000110001E08DF8113033782BB1214802F0D3
:10138000DFFB8DF8120001E08DF812302B782BB1C5
:101390001D4804F00DFD8DF8130001E08DF81330A9
:1013A00023782BB11948FFF712FE8DF8140001E0E5
:1013B0008DF814300023009302AA0D23012150461A
:1013C00004F0D3FF06B0BDE8F08700BF340300206F
:1013D0000800002007000020050000200900002070
:1013E000040000200A00002004080020190F00203B
:1013F00058040020180F002034080020200F00207F
:101400007C0E0020EC080020B0070020CC06002055
:1014100010B5E0239CB08DF80C30002201230D4C58
:101420008DF80E208DF80F30D1B2615C131DDBB248
:10143000013229B10DF1700E734403F8641CF3E717
:10144000009103AA01218DF80D3004F08EFF1CB02D
:1014500010BD00BFAF8E00082DE9F04F0C2A8BB0F5
:10146000834601D8042040E10B780493C3F30013B2
:1014700080F802318E78322EF4D84D78CC7805F091
:10148000100A5FFA8AF3069305F0200305F00207BD
:1014900005F0040805F00809DBB2062CFFB25FFA7C
:1014A00088F85FFA89F907930BD9A4F15C03DBB2E2
:1014B000082BD7D840F2D11020FA03F313F0010F14
:1014C00003E0012C03D115F0010FCBD019E0022C61
:1014D00002D1002FC6D014E0032C03D1B8F1000FC5
:1014E000C0D00EE0042C03D1B9F1000FBAD008E04F
:1014F000052C01D1069B02E0062C02D1079B002B94
:10150000B0D091F806A0BAF10F0FABD8CB797848DC
:1015100008934B790F2A4FEAA3030370087B91F8D5
:1015200009C091F80AE0CB7A099004D9112AC87B46
:1015300004D94A7C03E08020024600E0802204991E
:101540000292099AC1F3C0010591039101900092A2
:1015500061467246674804F063FA003718BF0127F6
:10156000654818F10008069B18BF4FF0010805F008
:10157000010519F1000918BF4FF00109057000338A
:101580005E4D18BF01232B70079B5D4D003318BFC4
:1015900001232B70A4F15C05DFF8A4E159495A4AF4
:1015A000EDB2082D8EF8007081F8008082F800906E
:1015B00006907746894690461AD840F25113EB4080
:1015C000DA0715D501238EF80030504B02221A702D
:1015D0004F4B1C709BF8033113B1464804F054FA8A
:1015E000602C0AD101220221424803F0D1FF04E01D
:1015F000464B00221C70464B1A70049B454ADB4345
:101600003146C3F3C0134448137002F01BF831464F
:10161000424801F0DDFD3146414802F089FA314689
:10162000404804F0BDFB31463F48FFF7C3FC31465C
:101630003E48FEF7D5FE51463D4805F021F951469A
:101640003C4803F0BBFB08993A4803F0B9FB51460C
:10165000394802F0ADF951463848FFF7CBFA059901
:10166000244801F0F1FC9BF8033133B1082D04D874
:1016700040F25113EB40DB0724D4069B1B7813B1D7
:10168000012211461BE03B7813B10122022116E032
:1016900099F8003013B10122032110E098F80030CE
:1016A00013B1012204210AE0144B1B7813B101226B
:1016B000052104E0124B1B7823B1012206210D48BD
:1016C00003F066FF0B4801F04DFC082D0CD840F2EA
:1016D000511323FA05F505F0010585F001001DB150
:1016E00001238BF8033100E000200BB0BDE8F08F40
:1016F0000600002034030020080000200400002021
:101700000A00002005000020090000200408002035
:10171000540D0020180F0020580400207C0E0020DB
:10172000EC080020B0070020CC060020200F00208D
:101730003408002090030020F8020020F00D002063
:1017400007000020082A13B513D9092AD1F805008B
:1017500014BF4B7AFF230D2A94BF0246D1F80A200A
:10176000D1F80140009221460246034801F036FAC2
:1017700000E0042002B010BD3403002038B54B1E39
:101780000C46052B56D8DFE803F003460D1A2A3D18
:10179000324801F07BFF324803F014FB3148FFF779
:1017A000A9F83BE02D4801F071FF2D4803F00AFB3A
:1017B0002C48FFF79FF82C4800F08BFD31E02748BC
:1017C00001F064FF264803F0FDFA2648FFF792F87F
:1017D000254800F07EFD254802F0FAFD24E01F4870
:1017E00001F054FF1E4803F0EDFA1E48FFF782F89F
:1017F0001D4800F06EFD1D4802F0EAFD1C4802F095
:10180000E7FA14E0154801F041FF154803F0DAFA51
:101810001448FFF76FF8144800F05BFD134802F01E
:10182000D7FD134802F0D4FA124802F0AAF9124880
:1018300005F000F9114B1C701D4644B1104B1B788C
:10184000A34204D0012221460E4803F0A1FE2978CC
:101850000C48BDE8384001F045BA00BFF80200204E
:1018600090030020F00D0020000A0020580D0020F9
:10187000D004002070010020C001002004080020D6
:10188000F20200203403002010B50446002A44D0A0
:10189000234B09781B788B423DD006290DD963294B
:1018A00031D0A1F15C03DBB2082B36D840F25112E3
:1018B00022FA03F3DB071AD42FE0012901D1194BD7
:1018C00012E0022901D1184B0EE0032901D1174B78
:1018D0000AE0042901D1164B06E0052901D1154B78
:1018E00002E006290FD1144B1B78B3B10BE00E4B6D
:1018F00001221A70114B197090F803313BB1104856
:1019000004F0C2F803E00D4B00221A7000E002213F
:101910002046FFF733FF002010BD042010BD00BF9C
:101920000408002008000020070000200500002017
:1019300009000020040000200A000020540D0020AF
:101940003403002010B504464FF4E132012104F0C5
:10195000EBFC2046BDE810404FF41652032104F082
:10196000E3BC00002DE9F341B24D04462F46B24ED0
:101970000121204604F0E2FC8046002800F0E781C7
:101980000121204604F0E7FC94F8002122BBE02866
:101990001CD10123207084F8003184F80121E7E78D
:1019A000A054531C94F80111DBB2994284F8003121
:1019B000DED1A078182800F0D88032D8042870D062
:1019C00020D8012811D12046FFF742FC002384F8DB
:1019D000003184F80131CBE7012AE1D102236070A4
:1019E00084F8010184F80031C2E748D302284AD0C4
:1019F000032840F0A781023AD2B2E11C2046FFF74B
:101A000043FF46E010287AD004D8082850D00A288E
:101A100061D097E1112800F08B80132800F09880A6
:101A200090E1202800F02F810ED81C2800F0F680CD
:101A300003D81A2800F0B78084E11D2800F0CC807C
:101A40001E2800F011817DE1402800F04A8106D86F
:101A5000302800F02F81312800F02C8172E15028CD
:101A600000F05581802840F06D810022033B0092F8
:101A70009BB2E21C0321204604F077FCA6E7204637
:101A8000FFF7C6FCA2E7023AD2B2E11C2046FFF7FC
:101A9000E3FC0146002840F056812046FFF7AAFBF0
:101AA00094E7023AD2B2E11C2046FFF74BFEF0E782
:101AB000624B1B78622B01D05C2B06D1023AD2B26A
:101AC000E11C5F4803F046FAE3E703F0FB03602BF9
:101AD00040F05281E1E72B787BB95A4B012261211A
:101AE00059481A7003F054FD94F80121E11C033A9F
:101AF000D2B2564804F038FFC0E0052123E1544B30
:101B00001B78002B00F038812B78012B00F23481F8
:101B1000023AD2B2E11C4F4801F086FB0146002890
:101B200040F011812B78002B7FF450AF012105E1AB
:101B3000474B1B78002B00F01F812B78012B00F204
:101B40001B81023AD2B2E11C424801F089FBE5E771
:101B50003F4B1B78002B00F00F812B78012B00F2FC
:101B60000B813C4801F098FBD8E73378002B00F05C
:101B700003812B7813F0FD0F40F0FE80364B1B786D
:101B8000002B00F0F980023AE11CD2B2334804F095
:101B900061FC0146002840F0D6802B78002B7FF4B2
:101BA00015AF0221CAE033789BB12B7813F0FD0FFB
:101BB0000FD1294B023A1B78E11CD2B21BB1274846
:101BC00004F072FC02E02648FEF744FB10B93B78B3
:101BD000E4E702200146B6E03278002A00F0CC802B
:101BE000042B40F0CB80E178012908D12A78022A21
:101BF00012D11C4B1B78002B7FF4E8AE08E059B9DA
:101C00002A78022A08D1174B1B78002B3FF4DEAE4E
:101C1000124804F0BBFCD9E6194694E03378002B57
:101C200000F0AA80023AD2B2E11C0C4804F06AFC2F
:101C300024E000BF0408002007000020540D00200D
:101C4000080800208803002034030020C001002081
:101C50000800002058040020180F0020340800203D
:101C6000200F0020190F00203378002B00F0848013
:101C7000023AD2B2E11C444804F078FC0146002844
:101C80003FF4A4AE5FE0414B1B78002B74D02B785F
:101C90000BB1032B70D1023AE11CD2B23C4801F0E7
:101CA00003FA014600284ED13B78002B7FF48EAE1C
:101CB000032143E0374B1B78002B5DD02B7813F0CA
:101CC000FB0F59D1023AE11CD2B2334801F08FFE2A
:101CD0000146002837D12B78002B7FF477AE042102
:101CE0002CE02E4B1B78002B46D02B780BB1052B0C
:101CF00042D1023AE11CD2B2294803F09BFF0146CF
:101D000008BB3B78002B7FF461AE052116E0254B24
:101D10001B788BB32B780BB1062B2DD1224B0121D5
:101D2000023A1970D2B2E11C2048FFF7B2F801461E
:101D300048B93B78002B7FF449AE06212046FFF7D7
:101D40001DFD43E601212046FFF76AFA3EE61848EA
:101D500001F080F94BF67F33984284BF84F800810C
:101D600084F801810321204604F0E8FA40B1032100
:101D7000204604F0F0FAF5E70221E4E70421E2E767
:101D800002B0BDE8F08100BF34080020050000204B
:101D90007C0E002009000020EC0800200400002038
:101DA000B00700200A000020780E0020CC0600209A
:101DB00034030020F0B5154B91B01B78012B23D8CC
:101DC000134B1B7803B3E0238DF80C30CDB21023F6
:101DD0008DF80E30C5F10307CBB2DC195B1BDBB20B
:101DE0009A42E4B206D911F8016B10AB234403F810
:101DF000346CF1E7D31C0022DBB20092012103AA6C
:101E00008DF80D3004F0B1FA11B0F0BD04080020D7
:101E100008000020F0B5154B89B01B78012B23D8A2
:101E2000134B1B7803B3E0238DF80C30CDB2112394
:101E30008DF80E30C5F10307CBB2DC195B1BDBB2AA
:101E40009A42E4B206D911F8016B08AB234403F8B7
:101E5000146CF1E7D31C0022DBB20092012103AA2B
:101E60008DF80D3004F081FA09B0F0BD04080020AF
:101E7000080000201FB50C4B1B78012B11D80B4B11
:101E80001B7873B11222E0238DF80E2000228DF80A
:101E90000C300092032303AA01218DF80D3004F0C9
:101EA00064FA05B05DF804FB040800200800002077
:101EB0001FB50C4B1B78012B11D80B4B1B7873B142
:101EC0001322E0238DF80E2000228DF80C300092B2
:101ED000032303AA01218DF80D3004F046FA05B062
:101EE0005DF804FB0408002008000020F0B5184C41
:101EF0008DB0247814F0FD0F27D1164C247824B32C
:101F000000294FF0E00414BF1A211821D5B28DF832
:101F100008408DF80A10C5F10307D1B2CC19491B4E
:101F2000C9B28B42E4B206D912F8016B0CA9214464
:101F300001F8286CF1E700220333DBB200920121A3
:101F400002AA8DF8093004F010FA0DB0F0BD00BF00
:101F500004080020070000201FB50E4B1B7813F06B
:101F6000FD0214D10C4B1B788BB100294FF0E0031C
:101F700014BF1B2119218DF80C308DF80E1003238E
:101F80000092012103AA8DF80D3004F0EEF905B09E
:101F90005DF804FB0408002007000020F0B5164B94
:101FA000A5B01B78032B00D01BBB144B1B7803B3CD
:101FB000E0238DF80C30CDB220238DF80E30C5F122
:101FC0000307CBB2DC195B1BDBB29A42E4B206D941
:101FD00011F8016B24AB234403F8846CF1E7D31CA4
:101FE0000022DBB20092012103AA8DF80D3004F02B
:101FF000BCF925B0F0BD00BF04080020050000209A
:102000001FB50D4B1B78032B00D08BB90B4B1B78E6
:1020100073B12122E0238DF80E2000228DF80C30C0
:102020000092032303AA01218DF80D3004F09DF9DD
:1020300005B05DF804FB00BF040800200500002087
:10204000F0B5164BA1B01B7813F0FB0F23D1144B46
:102050001B7803B3E0238DF80830CDB230238DF820
:102060000A30C5F10307CBB2DC195B1BDBB29A4225
:10207000E4B206D911F8016B20AB234403F8786C65
:10208000F1E7D31C0022DBB20092012102AA8DF8F5
:10209000093004F06AF921B0F0BD00BF0408002047
:1020A00009000020F0B5164BC3B01B7813F0FB0FEE
:1020B00023D1144B1B7803B3E0238DF80C30CDB241
:1020C00031238DF80E30C5F10307CBB2DC195B1B51
:1020D000DBB29A42E4B206D911F8016B42AB234459
:1020E00003F8FC6CF1E7D31C0022DBB20092012163
:1020F00003AA8DF80D3004F038F943B0F0BD00BFED
:1021000004080020090000201FB50C4B1B7813F0B9
:10211000FB0210D10A4B1B786BB1E02332218DF802
:102120000C308DF80E1003230092012103AA8DF8C4
:102130000D3004F01AF905B05DF804FB0408002026
:1021400009000020F0B5164BA5B01B78052B00D078
:102150001BBB144B1B7803B3E0238DF80C30CDB2BE
:1021600040238DF80E30C5F10307CBB2DC195B1BA1
:10217000DBB29A42E4B206D911F8016B24AB2344D6
:1021800003F8846CF1E7D31C0022DBB2009201213A
:1021900003AA8DF80D3004F0E8F825B0F0BD00BFBB
:1021A00004080020040000201FB50D4B1B78052BF0
:1021B00000D08BB90B4B1B7873B14122E0238DF813
:1021C0000E2000228DF80C300092032303AA012177
:1021D0008DF80D3004F0C9F805B05DF804FB00BFC0
:1021E0000408002004000020F0B51E4690F80231DB
:1021F000A5B083B3E0238DF80C30F3238DF80E30B7
:102200000023DCB2E51C0F5DEDB20DF1900E013341
:10221000754417B105F8847CF3E71312211D05F806
:10222000843CC9B224AB194401F8842C621DD2B29B
:102230001A44331202F8843CE31D063424AAE4B2A3
:102240001444012104F8846CDBB2009103AA8DF8D8
:102250000D3004F08AF825B0F0BD002310B50370EE
:10226000436000F1080100F16C0401F8013BA14258
:102270004FF00002F9D1C266026742678267C26707
:10228000C0F88020C0F8842000F1880300F5987120
:1022900043F8042B8B42FBD100F5EC72002143F88C
:1022A000041B9342FBD100F52072002143F8041B6C
:1022B0009342FBD100F54A72002143F8041B93427C
:1022C000FBD100F25232002103F8011B9342FBD1F3
:1022D00010BD002303704360C366036770470000AE
:1022E0002DE9F0470D68D0F87890D0F880800F691C
:1022F00009EB050C446F4744BC45E6464FEAD4035E
:10230000A8BFBE46BC45B4BF384D394D4FEA830324
:1023100004F0070200EB0307B5BFAE5CAE5CD7F874
:102320008850D7F88850B4BF35403543C7F8885037
:102330004E684D694E444544AE423746A8BF2F46CD
:10234000AE42B4BF294D2A4D00EB030CB5BFAE5CC5
:10235000AE5CDCF83051DCF83051B4BF3540354369
:10236000CCF830518E68D0F87CC0D0F884900CEB5B
:10237000060A8E69D04609EB0605AA45A8BFA846FD
:10238000AA45B4BF194D1A4D00EB030AB5BFAD5CA9
:10239000AD5CDAF8D861DAF8D861B4BF2E402E43CC
:1023A000CAF8D861CD68C969654449448D422E4652
:1023B000A8BF0E468D42B4BF0C490D490344B5BFBA
:1023C0008A5C8A5CD3F88012D3F88012B4BF0A40CA
:1023D0000A43C3F880220134C0F878E0C767C0F828
:1023E0008080C0F884604467BDE8F087809400086E
:1023F0008894000870B512C988B084F0010381F098
:1024000001029E1865180B44224469460095019606
:10241000029303920496059506920793FFF760FFD7
:1024200008B070BDF0B52C4C002340F2491219469B
:1024300026462A4F03294BD8DFE801F0020F1B3153
:10244000D510223502F0070E14F80EE050F8255092
:102450001EEA050F18BF022116E0D1104C3102F020
:10246000070550F82110655D0D420CBF00210221C7
:1024700021E0D110763102F0070550F82110655D9A
:102480000D420CBF0121032103F0070500EBD30E21
:1024900017F805C09EF828530CEA050515E0D5107D
:1024A000A03502F0070E14F80EE050F825501EEA91
:1024B000050F08BF012103F0070500EBD30E16F846
:1024C00005C09EF828534CEA05058EF828530133C1
:1024D00012F1FF32AED2F0BD88940008809400085B
:1024E0004FF0FF3370B5104E4C1E01F1260514F865
:1024F000012FC3F307205A40D2B236F81230A5425A
:1025000080EA03000346F2D1C04391F82720C3B20A
:102510009A4207D191F82830C0F30720C31A5842D5
:10252000584170BD002070BDA09400082DE9F04313
:102530000446904E174699B04A1E002312F8015FD8
:10254000985D01336840532B1070F7D10023184673
:1025500003AA98540133542BFAD1874B00208025CD
:10256000B0F5257F0EDB0023A367E367C4F8803056
:10257000C4F8843063671D464FF0800801264FF091
:102580004009ABE0C2108E5CF20710D513F81020A2
:102590000DF1600E724403EB400E9EF801E025FA47
:1025A0000EFC12F854EC4CEA0E0E02F854ECB20792
:1025B00012D500F1010E13F81E2003EB4E0E0DF1A3
:1025C000600C9EF801E0624425FA0EFC12F854EC0F
:1025D0004CEA0E0E02F854EC720712D500F1020E0E
:1025E00013F81E2003EB4E0E0DF1600C9EF801E077
:1025F000624425FA0EFC12F854EC4CEA0E0E02F876
:1026000054EC320712D500F1030E13F81E2003EB31
:102610004E0E0DF1600C9EF801E0624425FA0EFCAE
:1026200012F854EC4CEA0E0E02F854EC021DB2F50E
:10263000257F01DB104693E716F0100F0FD013F83B
:1026400012E003EB42020DF1600C5278E64425FAE9
:1026500002FC1EF8542C4CEA02020EF8542CB2066E
:1026600012D500F1050E13F81E2003EB4E0E0DF1EE
:10267000600C9EF801E0624425FA0EFC12F854EC5E
:102680004CEA0E0E02F854EC720612D500F1060E5A
:1026900013F81E2003EB4E0E0DF1600C9EF801E0C6
:1026A000624425FA0EFC12F854EC4CEA0E0E02F8C5
:1026B00054EC320610D5C61D13F8162003EB46065F
:1026C0000DF1600E7678724425FA06FE12F8546C0D
:1026D0004EEA060602F8546C083041E718AB03EBEB
:1026E000E50313F8542C05F0070328FA03F1114011
:1026F00029FA03F30CBF0291029601A91340204668
:1027000005F1020514BF01960193FFF773FEB5F5BD
:10271000257FE3D12046FFF785FE7B1E07F12802C7
:10272000002103F8011F9A42FBD140F24912134DD8
:10273000012604EBE20102F0070E91F8280315F8D8
:102740000E10C2F5A473084203F1010307D0D808A4
:10275000395C03F0070306FA03F30B433B5412F111
:10276000FF32E6D239462046FFF7BAFE19B0BDE87F
:10277000F08300BF25940008FD8E000888940008AF
:1027800029220148FFF716BBC805002030B5436871
:102790008DB004465B0009B143F001036360E36E52
:1027A000D80803F0070229B11D4D2118AD5C0A7A43
:1027B0002A4304E01B4D2118AD5C0A7A2A400133FC
:1027C0002044B3F5487F0272E36604D900232370E6
:1027D0006360E3662367E36EB3F5257F1DD104F1E3
:1027E000080501AA29462046FFF7A0FEA0B1012155
:1027F0000D4800F019FC01A92046FFF7C1FF0E2289
:102800000021284606F00AF80023E366022323701D
:102810004FF41653236700E020700DB030BD00BFA9
:102820009894000890940008340300200C2201487A
:10283000FFF7F0BAC8050020436870B55B00044696
:1028400009B143F001036360606880F0AA3001F0D1
:1028500065FA022803D81E4A0023136036E0606838
:1028600020F07F431B48584001F058FA022809D84D
:102870005322002104F1080005F0D0FF0023E36695
:10288000012323E0606820F07F431348584001F0A3
:1028900045FA0646D8B90121104800F0C5FB104A98
:1028A00004F1080513682946A36053682046E360D5
:1028B00093682361FFF7BAFF0E223146284605F0E0
:1028C000ADFF4FF416532367E6660223237070BDF5
:1028D0001C0F00205076550068B4AA003403002075
:1028E000A096000843682DE9F0415B00044609B159
:1028F00043F001036360E36ED80803F0070229B1D7
:10290000444D2118AD5C0A7A2A4304E0424D211857
:10291000AD5C0A7A2A4001332044B3F5487F027245
:10292000E36604D9002323706360E366236763686A
:102930003A48584001F0F2F901280AD800213848F5
:1029400000F072FB3748FFF7B3FA00232370BDE8AD
:10295000F081E36E5C2B01D800260EE0606820F069
:102960007F433148584001F0D9F90328F4D8602357
:10297000E3664FF4165323670126E36E602B18D1EC
:10298000BEB9DFF8A48001256FF07F47636827FA9E
:1029900005F0034028FA05F0584001F0BFF903287C
:1029A00004D8E36EEDB25D1BE56602E00135042D4F
:1029B000ECD1256F013D25674DB92946184800F037
:1029C00033FB1848FFF756FA2570BDE8F081E36E37
:1029D000602B1DD104F1080556B1552363742D23D6
:1029E000A3741623E37429462046FFF71FFF04E073
:1029F0000C2229460B48FFF70DFA0121084800F088
:102A000013FB0E220021284605F008FF0023E36691
:102A1000BDE8F08198940008909400085E13AAAA7B
:102A200034030020C805002068B4AA000378012BF5
:102A300005D002D3022B04D07047FFF7FDBEFFF78D
:102A4000A5BEFFF74FBFF8B50546062600277D2433
:102A50004FF47A712846FDF71DFF013CF8D187F04D
:102A60000104E4B239462846FDF7BCFE214628465B
:102A7000FDF7F2FE21462846FDF7C4FE2146284612
:102A8000FDF7C8FE21462846FDF7CCFE2146284624
:102A9000FDF7D0FE21462846FDF7D4FE2146284604
:102AA000FDF7D8FE21462846FDF7DEFE013E01D0A7
:102AB0002746CCE7F8BD000070B504460025057236
:102AC0004FF480610C3001F0F0FA01264FF4806180
:102AD00004F1200001F0E9FAE5642046A4F8505022
:102AE00084F83450A56384F83C50256484F844503D
:102AF00084F84B60A4F85250FDF79AFC314620460A
:102B0000FDF740FE31462046FDF76CFE2946204683
:102B1000FDF7A2FE29462046FDF774FE2946204611
:102B2000FDF778FE29462046FDF77CFE2946204623
:102B3000FDF780FE29462046FDF784FE2946204603
:102B4000FDF788FE29462046FDF78EFE29462046E1
:102B5000FDF750FE29462046FDF7DCFD29462046BC
:102B6000FDF7E0FD29462046FDF7F0FD2046FFF782
:102B70006AFF024B20461D6070BD00BF1C0F002085
:102B80002DE9F8431E46037A054688469146BBB1B7
:102B9000002400F120074C450AD018F804100EB9A3
:102BA000324600E0325D384601F0D6FA0134F2E7F1
:102BB000044C237823B9284602F0ACFC012323708F
:102BC000BDE8F883190F0020203001F083BA2030CF
:102BD00001F050BB0C3001F04DBB000070B50E464B
:102BE00019461546049C02F015FF2F4B2F4A33441B
:102BF00093421ED92C4B2B4493421AD92C4B2D4A6D
:102C00003344934215D92A4B2B44934211D92A4B72
:102C10002A4A334493420CD9274B2B44934208D978
:102C2000274B284A3344934203D9254B2B449342E4
:102C300038D81D4B1D4A234493420ED91C4B1D4AC4
:102C40002344934209D91C4B1C4A2344934204D980
:102C50001B4B1C4A2344934224D81B4B1B4A33442E
:102C600093421FD9184B2B4493421BD91849194B37
:102C70003144994216D916492944994212D9124928
:102C8000214491420ED902F1664202F57622224495
:102C90009A4207D9104B00201E60104B1D60104B4C
:102CA0001C6070BD042070BD00BC6AF7FF083D00C9
:102CB000004FF7E6BF3B47034053F2F27F8D5B00C6
:102CC0008019D0CDFFF26F06C0444FF7400D0300CE
:102CD000406D12E6C0C62D00940F0020880F002022
:102CE0008C0F002038B50C4605464B1E5942594101
:102CF000FDF788FDA21E514251412846FDF78AFD8D
:102D0000E01E414241412846FDF78CFDA4F1040E2E
:102D1000DEF1000141EB0E012846FDF78BFDA4F129
:102D2000050CDCF10001284641EB0C01FDF78AFDA2
:102D3000A31F594259412846BDE83840FDF78ABDD6
:102D4000836B37B5027A013304468363FAB1C36CEF
:102D5000B3F5964F0AD3734A1378013B042B03D87B
:102D600000211170FFF7BEFF0023E36445F6BF5357
:102D7000A26B9A4219D994F84B10002381F00101FB
:102D8000A36384F84B102046FDF72CFD0DE0664947
:102D90008B4240F2C58090F84B10826381F00101B4
:102DA00080F84B10FDF71EFDBAE004F1200001F0A1
:102DB000B3F95E4DB8B95E4B1B78A3B15D4B1A7881
:102DC00042B1187094F8453023B1012229785A484D
:102DD00002F0DEFB594B1A78002A40F09480002163
:102DE000204602F0B5FB2B78022B554B08BF4FF461
:102DF00070611A6818BF4FF4F06191422AD800221E
:102E00001A60484B1B782BBB236C1BBB94F83C30DF
:102E100003B3484B1B78EBB9484B1B78D3B994F8F4
:102E2000443094F845100133B3FBF1F201FB123347
:102E300084F84430DBB2234493F846102046FFF771
:102E400051FF94F844300122234493F846103A4845
:102E500002F09EFB0C34204601F05EF900285FD0A2
:102E60000DF107020DF10601204601F0C3F92B78A0
:102E7000013B042B54D8DFE803F0030C2B343D0056
:102E80009DF806102F48003118BF0121FFF7CEFD35
:102E900046E02D4B9DF806101B7893B1244B1B7810
:102EA00043B100319DF8072018BF0121274801F0E8
:102EB00069FF35E0003118BF0121254800F0F8FC1A
:102EC0002EE0003118BF01212248FDF79FFE27E0C8
:102ED0009DF806102048003118BF012101F03EFB8B
:102EE0001EE09DF806101D48003118BF012101F0B9
:102EF000D1F815E09DF806101948003118BF0121DE
:102F000000F000FF0CE000221A7094F84530002B0E
:102F10003FF465AF01222978074802F039FB5EE7EC
:102F200003B030BD040800207FA90300F202002096
:102F3000190F00208803002034030020780E0020A1
:102F40001C0F0020000A0020180F00209003002012
:102F5000F8020020F00D0020580D0020D0040020C1
:102F600070010020002310B580F84530284B04463E
:102F70001B7823B1012380F8463080F84530254B7B
:102F80001B7843B194F845300221E218013382F8EE
:102F9000461084F84530204B1B7843B194F84530F7
:102FA0000321E218013382F8461084F845301B4BA8
:102FB0001B7843B194F845300421E218013382F8BC
:102FC000461084F84530164B1B7843B194F84530D1
:102FD0000521E218013382F8461084F8453094F850
:102FE0004530012B03D9012384F83C3007E000234E
:102FF00084F83C300B4B20461978FFF773FE237A98
:1030000023B92046FDF754FB0123237210BD00BFF6
:103010000800002007000020050000200900002013
:10302000040000200408002038B5064B0D461C782B
:103030008C421C4603D001230364FDF715FC257068
:1030400038BD00BFAC07002080F834107047002363
:10305000C3647047C06C7047B0F850300B80B0F854
:10306000523013800023A0F85030A0F8523070473F
:1030700010B5044640F2DC5101F001F904F11002F0
:1030800004F19201002002F8010B8A424FF0000384
:10309000F9D1F022A4F89230A4F89430A4F8962044
:1030A00084F89830204610BD792A70B506460C4643
:1030B0000ED101F0F7F877280CD904F1780514F84F
:1030C000011F304601F030F9AC42F8D1002070BD4C
:1030D000042070BD052070BDF7B50D4608240026FC
:1030E00001272B064FF001024FF000030DF10701FD
:1030F000084804F1FF344CBF8DF807708DF8076065
:103100006D00FFF73DFD14F0FF04EDB2E9D103B00F
:10311000F0BD00BF3403002070B5044601F0E4F8B0
:10312000B4F8923008B903B970BDF3B9264A1278E1
:103130003AB9012384F89830B4F89630A4F8923064
:1031400010E084F898307825B4F892602046731C1B
:10315000A4F8923001F00EF9013D264415F0FF0568
:103160003074F1D10023A4F89430B4F892304BB30A
:103170001648FFF729FD0546082D23D994F8983005
:1031800033B1B4F8943077210133A4F8943006E0D9
:10319000B4F894305A1CA4F894202344197C204697
:1031A000FFF79AFFB4F89420B4F89230083D9A42A1
:1031B000ADB2E1D30023A4F89430A4F8923084F89F
:1031C000983070BD70BD00BF190F0020340300207F
:1031D00001EB4101890001F51671A0F896107047C6
:1031E00008B501F05FF87823B0FBF3F080B208BDBA
:1031F00010B504464FF47A7101F041F804F1100261
:1032000004F16A01002002F8010B8A424FF000032A
:10321000F9D13C22A4F86A30A4F86C30A4F86E20EE
:1032200084F87030204610BD292A70B506460C4639
:1032300012D101F037F8292810D90021304601F0C9
:1032400073F8651E283415F8011F304601F06CF83C
:10325000A542F8D1002070BD042070BD052070BDCE
:103260000C2A70B506460C4612D101F01BF80C284A
:1032700010D90121304601F057F8651E0B3415F8BE
:10328000011F304601F050F8A542F8D1002070BD72
:10329000042070BD052070BD10B5044601F002F891
:1032A00028B10221204601F03FF8002010BD052082
:1032B00010BD0000002318462DE9F04F97B001AC77
:1032C0001855D0540133532BF9D10020044605463C
:1032D000DFF8BCE101394FF0010C234606462C46CD
:1032E00011F8018F00270CFA07F518EA050F14BF33
:1032F0000125002503EB050923442B44DB0709F0D6
:1033000001090CD506F007031EF803B016AB03EB5A
:10331000D60313F854AC4BEA0A0A03F854ACB9F1DB
:10332000000F0ED0731C0DF1580909EBD30903F0FF
:1033300007031EF803A019F8543C4AEA030309F8EE
:10334000543C0137082F06F10206234601D02C46D3
:10335000C9E71030B0F5287FBFD14B4F0021384668
:10336000012407EB41030733B1F5257F7ED216AD6B
:1033700005EBD10515F8545C2E060BD513F8066C39
:1033800013F807CC04FA06FE12F80C604EEA0606A3
:1033900002F80C606E060BD513F8046C13F805CC1C
:1033A00004FA06FE12F80C604EEA060602F80C60FB
:1033B000AE060BD513F8026C13F803CC04FA06FE24
:1033C00012F80C604EEA060602F80C60EE060AD50A
:1033D0001E7813F801CC04FA06FE12F80C604EEACF
:1033E000060602F80C600E1DB6F5257F03F10803F2
:1033F00001D33146B8E72B070BD510F816E000EBE8
:103400004606737804FA03F612F80E30334302F8D6
:103410000E306B070CD54B1D10F813E000EB430387
:103420005B7804FA03F612F80E30334302F80E30DC
:10343000AE070CD58B1D10F813E000EB43035B784F
:1034400004FA03F612F80E30334302F80E30EB079D
:103450000AD5CB1D10F8136000EB43035B7804FA28
:1034600003F5935D2B43935508317AE7074C013AF6
:10347000002312F8010F195D01334140532B1170E5
:10348000F7D117B0BDE8F08FAC960008D49B0008C8
:103490002F9C00082DE9F34101240E46A046082583
:1034A000002734EA06034FF001024FF000030DF14C
:1034B0000701094805F1FF350CBF8DF807808DF82D
:1034C00007706400FFF75CFB15F0FF05E4B2E8D17C
:1034D00002B0BDE8F08100BF3403002070B5A2B097
:1034E000044600F001FF20B9B4F86A30002B00F068
:1034F000A080204600F039FFB4F86A5088BB9DBB1D
:103500004D4B1B782BB9012384F87030B4F86E3022
:1035100063E084F87050204600F02CFF204600F055
:1035200029FF01A948550135292DF7D10DF13202A6
:103530002046FFF7BFFEEA238DF83030B4F86A105A
:10354000A6238DF831300023CA180CA8185C92B25B
:1035500001332244552B1074F6D15531A4F86A106A
:103560001BE001281DD125B13448FFF72DFB05468E
:103570003AE084F87050204600F0FCFE0C25B4F8C8
:103580006A602046731CA4F86A3000F0F3FE013D27
:10359000264415F0FF053074F1D10023A4F86C30F7
:1035A0001EE002281CD1002DDED184F87050204688
:1035B00000F0E0FEB4F86A30214D03F1120080B251
:1035C00000229918565D89B201322144062A0E74F0
:1035D000F7D106339BB28342F2D1A4F86A30DCE71C
:1035E000B4F86A302BB3BFE7082D22D994F87030B5
:1035F00033B1B4F86C30AA210133A4F86C3006E082
:10360000B4F86C305A1CA4F86C202344197C204672
:10361000FFF740FFB4F86C20B4F86A30083D9A42D6
:10362000ADB2E1D30023A4F86C30A4F86A3084F87A
:10363000703022B070BD00BF190F0020340300208D
:10364000379C000801EB410149009631A0F86E104B
:10365000704708B500F026FE0D23B0FBF3F080B2F2
:1036600008BD034630B500240025E3E8024500F11B
:10367000300103F8014B8B424FF00002F9D142F2C6
:103680000F730286438680F8342030BD0023038602
:1036900042F20F73438670472DE9F043DFF808E2EA
:1036A0000027BC467646FCB2A24240F2FA8083F87C
:1036B00000C000EBD10401F00708257A1EF808408D
:1036C00001372540CC4304F0070445FA04F44D1CAF
:1036D000ADB2B5F5A07F4FEAC4141C704FFA84F860
:1036E00022BF6FF49F7409198DB200EBD50105F06C
:1036F0000704097A345D01330C40E94301F0070106
:1037000044FA01F16C1C1FFA84F9B9F5A07F24BFBB
:103710006FF49F794D4448EA811128BF1FFA85F95B
:103720004FFA81F803F8018C00EBD90109F0070585
:103730000C7A715D0C406FEA090101F0070144FA4F
:1037400001F109F1010448EA41111FFA84F8B8F5C2
:10375000A07F22BF6FF49F7809EB08041FFA84F85A
:1037600049B203F8011C00EBD80408F00709257AD8
:1037700016F8094025406FEA080404F0070445FAEA
:1037800004F441EA041408F101011FFA81F9B9F5C2
:10379000A07F22BF6FF49F7508EB05011FFA81F926
:1037A00064B203F8014C00EBD90109F007080D7A67
:1037B00016F8081029406FEA090505F0070541FAD7
:1037C00005F544EAC50509F101041FFA84F8B8F5C6
:1037D000A07F22BF6FF49F7109EB01041FFA84F8E8
:1037E0006DB203F8015C00EBD80108F007090C7A10
:1037F00016F809100C406FEA080101F0070144FABD
:1038000001F108F101041FFA84F9B9F5A07F24BF82
:103810006FF49F7908EB090445EA810128BF1FFA7C
:1038200084F949B203F8011C00EBD90409F0070838
:10383000257A16F8084025406FEA090404F00704C9
:1038400045FA04F441EA440409F101011FFA81F840
:10385000B8F5A07F22BF6FF49F7509EB05011FFA31
:1038600081F864B203F8014C00EBD80108F00709B5
:103870000D7A16F809100D406FEA080101F00701F2
:1038800045FA01F10C4308F1010189B2B1F5A07FBD
:1038900024BF6FF49F71414403F8014C28BF89B2E3
:1038A00001E7BDE8F08300BF439C00080000000072
:1038B00030B5038E8BB0DA1004463B4D03F007039E
:1038C00021B11044ED5C037A2B4304E0E85CA318BB
:1038D0001B7A23EA000322441372D4E900239218CE
:1038E0005B4109B142F001024FF6FF71C4E90023C8
:1038F0004FF0FF30D4E900230B40024028A1D1E96A
:1039000000015940504000F01DFA0228238E08D8CB
:1039100003F16C0292B2B2F5A07F28BFA3F1D402EA
:103920006286628E9A4231D103F1390189B2B1F5D2
:10393000A07F22BF6FF483729B1899B221220DF1F0
:1039400005032046FFF7A8FE684601F021FB0DF1B4
:1039500003030DF102020DF10501684601F046FB7B
:1039600094F834209DF802309A420CD19DF803302F
:10397000032B08D1C3238DF8043001AA2223002190
:103980000A48FEF7B3FA42F20F736386238E0133BF
:103990009BB2B3F5A07F28BF002323860BB030BDB8
:1039A00057D77FF7D7D50000439C0008C8050020F3
:1039B00080F83410704710B5044640F2DC5100F036
:1039C0005EFC04F1100204F58571002002F8010B81
:1039D0008A424FF00003F9D1F022A4F80A31A4F88A
:1039E0000C31A4F80E2184F81031204610BD122AA3
:1039F000F8B506460F46144614D900F053FCA04211
:103A000012D3013CE1B2304600F08EFC0025EBB24F
:103A10009C4205F1010509D93B445978304600F034
:103A200083FCF4E70420F8BD0520F8BD0020F8BDB4
:103A3000F7B50D460824002601272B064FF001029A
:103A40004FF000030DF10701084804F1FF344CBFAB
:103A50008DF807708DF807606D00FFF791F814F08E
:103A6000FF04EDB2E9D103B0F0BD00BF3403002084
:103A7000F8B5044600F038FCB4F80A5108B905B9A5
:103A8000F8BD15BB284B1B783BB9012384F81031D6
:103A9000B4F80E31A4F80A3114E0204600F06AFCB4
:103AA000074684F81051EBB29F420BD9B4F80A6173
:103AB0002046731CA4F80A3100F05CFC26443074E4
:103AC0000135F0E70023A4F80C31B4F80A314BB308
:103AD0001648FFF779F80546082D23D994F81031D8
:103AE00033B1B4F80C3177210133A4F80C3106E07E
:103AF000B4F80C315A1CA4F80C212344197C20463C
:103B0000FFF796FFB4F80C21B4F80A31083D9A4249
:103B1000ADB2E1D30023A4F80C31A4F80A3184F843
:103B20001031F8BDF8BD00BF190F0020340300208C
:103B300001EB4101890001F51671A0F80E117047E3
:103B400008B500F0AFFBD823B0FBF3F080B208BD9E
:103B500030B5002300240025C0E90245037000F1C0
:103B6000100200F1430402F8013B94424FF00001BF
:103B7000F9D100F11103A0F84810A0F84A104364ED
:103B800030BD30B50023002400250370C0E9024594
:103B9000A0F84830A0F84A3030BD0000D0E9022338
:103BA000921810B55B41044609B142F00102C4E924
:103BB00002231248D4E902230021024010480B409E
:103BC00000215040594000F0BDF8A8B9636CCD22E7
:103BD0001A70636CF5225A70636C90229A700623F7
:103BE000A4F84A3001211423A4F848302170054874
:103BF000BDE81040FFF718BA10BD00BFFFFF0F006F
:103C000059DF0C003403002031220148FEF79ABA34
:103C1000C8050020D0E90223921870B55B41044624
:103C200009B142F00102C4E90223B4F84830606CE3
:103C3000DA1086182E4D03F0070319B1E95C835C96
:103C40000B4303E0E95C835C23EA01033370B4F8BF
:103C5000483001339BB2B3F5C07FA4F8483002D995
:103C60002046FFF78EFFB4F84830123B9BB2042B7E
:103C700013D8D4E902231F48002102401E480B40FC
:103C800000215940504000F05DF803289FBF0623F3
:103C9000A4F84A301423A4F84830B4F84830B3F5F7
:103CA000C07F23D1B4F84A10013989B2A4F84A1070
:103CB00051B91248FFF7B8F91148FEF775FA2046D6
:103CC000BDE87040FFF75DBF25464B1F5942594183
:103CD00005F8101F29462046FFF796FF33220021E2
:103CE000284604F09BFD0023A4F8483070BD00BFB7
:103CF0004B9C0008FFFF0F0059DF0C00340300202D
:103D0000C805002003780BB9FFF748BFFFF782BF53
:103D1000014B185C704700BF539C0008084BC1B2B0
:103D2000C0F307229A5C595C82B01144C0F3074289
:103D30009A5C000E185C0A441044C0B202B070478E
:103D4000539C0008114B82B0CDE90001C0F307225B
:103D5000C1B29A5C595C1144C0F307429A5C000EF0
:103D6000185C0A4410449DF804209A5C10449DF8A5
:103D700005209A5C10449DF806209A5C10449DF83A
:103D800007209B5C1844C0B202B07047539C0008E7
:103D900030B5002300240025C0E90245037000F17E
:103DA000100100F1EB0401F8013B8C424FF00002DE
:103DB000F9D142F20F73A0F8F23000F11103A0F82C
:103DC000F020A0F8F42080F8F620C0F8EC3030BDE8
:103DD00042F20F7230B50023002400250370C0E9C1
:103DE0000245A0F8F030A0F8F220A0F8F43080F8F6
:103DF000F63030BDD0E90223921810B55B4104467D
:103E000009B142F001024FF6FF71C4E90223D4E97F
:103E100002230B4045F275514FF0FF3002400F482E
:103E200059405040FFF78EFF022815D80C48002358
:103E3000195CD4F8EC20D1540133062BF8D10423BB
:103E4000A4F8F43001213023A4F8F03021700548A3
:103E5000BDE81040FFF7E8B810BD00BFFF77FFF5E1
:103E6000539D000834030020D9220148FEF71AB9F7
:103E7000C805002090F8F6300F2B14D8DFE803F0C7
:103E80000813130B1313130D131313130D13131024
:103E90004FF4467309E0902307E04FF4B47304E055
:103EA0004FF4D87301E04FF4D863A0F8F2307047B4
:103EB000D0E90223921870B55B41044609B142F083
:103EC0000102C4E90223B4F8F030D4F8EC00DA10AF
:103ED0008618254D03F0070319B1E95C835C0B4399
:103EE00003E0E95C835C23EA01033370B4F8F0304B
:103EF00001339BB2B3F5D86FA4F8F03002D9204655
:103F0000FFF766FFB4F8F030402B13D148F2890276
:103F1000D4F8EC30DB7903F00F0384F8F63022FAA2
:103F200003F3DB0703D40423A4F8F43018E020469D
:103F3000FFF7A0FFB4F8F030B4F8F2209A4211D1A4
:103F400021460123D2081A4401F8103FD2B2074893
:103F5000FEF776F80423A4F8F4300023A4F8F03038
:103F60000223237070BD00BF599D0008C8050020C2
:103F7000D0E90223921870B55B41044609B142F0C2
:103F80000102C4E90223B4F8F030D4F8EC00DA10EE
:103F900086183C4D03F0070319B1E95C835C0B43C1
:103FA00003E0E95C835C23EA01033370B4F8F0308A
:103FB00001339BB2B3F5D86FA4F8F03002D9204694
:103FC000FFF706FFB4F8F0302E3B9BB2042B16D857
:103FD000D4E902234FF6FF710B4045F275514FF0C3
:103FE000FF300240284859405040FFF7ABFE0428FC
:103FF0009FBF0423A4F8F4303023A4F8F030B4F8C1
:10400000F030402B09D1D4F8EC302046DB7903F0B6
:104010000F0384F8F630FFF72DFFB4F8F030B3F556
:10402000D86F2DD1B4F8F410013989B2A4F8F41086
:1040300049B91648FEF7F8FF1548FEF765F820461F
:10404000FFF7C6FE11E02546CB1E5942594105F83F
:10405000101F29462046FFF707FFDB2200212846D4
:1040600004F0DCFB0023A4F8F03094F8F630032BC6
:1040700001D00F2B04D12046BDE87040FFF7A8BE49
:1040800070BD00BF599D0008FF77FFF53403002085
:10409000C80500200378012B03D0022B03D1FFF7C2
:1040A00067BFFFF705BFFFF7A5BE38B50023CD08F2
:1040B00083810446C3810180436083600374437439
:1040C000284603F067FB6060284603F063FBA060AE
:1040D000204638BDC289838992B29BB29A42028837
:1040E00003D1037C93B9104612E0C189838989B258
:1040F0009BB299423BBF8389C089C38980B22DBFDF
:1041000080898018C01A181A80B201E00020704718
:10411000824238BF00207047C289838992B29BB225
:104120009A4205D1027C02F0FF039AB100887047E1
:10413000C289838992B29BB29A4203D28389C08991
:10414000181A05E0C1898289038892B2D018401AF2
:1041500080B2704718467047037CF0B51BB101234D
:1041600043740020F0BD858983894668C5F3CC057A
:104170001F4CC3F3CC0331B1F75C818901F0070117
:10418000635C3B4306E0F35C818901F00701615CFD
:1041900023EA01037355818983898568C1F3CC01C2
:1041A000C3F3CC0332B1EE5C828902F00702A35C58
:1041B000334306E0EB5C828902F00702A25C23EA4B
:1041C00002036B548389028801339BB28381838904
:1041D0009BB29A429CBF002383818289C38992B299
:1041E0009BB29A424FF0010308BF03741846F0BD1A
:1041F000619D0008F0B503468489C089A4B280B2ED
:10420000844204D11C7C04F0FF0004B9F0BDD889BD
:104210005C68C0F3CC00275CDE89D889144DC043AC
:1042200006F00706AC5D00F007003C4044FA00F0E1
:104230000870D9899868C1F3CC01465CDC89D989BA
:1042400004F00704C943285D01F00701304040FA3B
:1042500001F1117000211974DA891888013292B2C3
:10426000DA81DA8992B2904200D8D9810120F0BD7A
:10427000619D000803460022407C5A747047002369
:1042800010B50381044643810180436003730846EF
:1042900003F080FA6060204610BD00230381438153
:1042A000037370474289038992B29BB29A42028893
:1042B00003D1037B93B9104612E04189038989B287
:1042C0009BB299423BBF03894089438980B22DBF8D
:1042D00000898018C01A181A80B201E000207047C7
:1042E000824238BF002070474289038992B29BB254
:1042F0009A4205D1027B02F0FF039AB10088704711
:104300004289038992B29BB29A4203D203894089BF
:10431000181A05E041890289038892B2D018401A20
:1043200080B2704718467047037B10B503F0FF0258
:10433000BBB9038944689BB2E15403890188013306
:104340009BB2038103899BB2994298BF0281028983
:10435000438992B29BB29A424FF0010303D1037397
:1043600001E0002010BD184610BD438942689BB291
:10437000D05C7047034610B54289416892B2885CB0
:10438000002119735A891C88013292B25A815A89C4
:10439000C0B292B2944298BF598110BD30B500238B
:1043A00000240025C0E90245037000F1100200F16D
:1043B0008B0402F8013B94424FF00001F9D100F167
:1043C0001103A0F89010A0F89210C0F88C3030BD06
:1043D00030B50023002400250370C0E90245A0F891
:1043E0009030A0F8923030BDD0E90223921810B579
:1043F0005B41044609B142F00102C4E9022314A35F
:10440000D3E90023D4E9020101F0FF0150405940F3
:10441000FFF798FC022814D80B480023195CD4F845
:104420008C20D1540133052BF8D1A4F8923001210E
:104430002823A4F8903021700448BDE81040FEF70E
:10444000F3BD10BDAFF30080719D00083403002060
:104450004D63C971D400000079220148FDF79EBD6B
:10446000C805002000000000D0E90223921870B5B2
:104470005B41044609B142F00102C4E90223B4F8E9
:104480009030D4F88C00DA108618314D03F0070311
:1044900019B1E95C835C0B4303E0E95C835C23EACC
:1044A00001033370B4F8903001339BB2B3F5707FE1
:1044B000A4F8903002D92046FFF78AFFB4F8903074
:1044C000263B9BB2042B12D8D4E902011EA3D3E9E8
:1044D000002301F0FF0159405040FFF733FC04284E
:1044E0009FBF0523A4F892302823A4F89030B4F895
:1044F0009030B3F5707F23D1B4F89210013989B2AE
:10450000A4F8921051B91348FEF78EFD1248FDF73A
:1045100077FD2046BDE87040FFF75ABF25460B1FC8
:104520005942594105F8101F29462046FFF794FFCC
:104530007B220021284604F071F90023A4F8903072
:1045400070BD00BFAFF300804D63C971D40000009F
:10455000699D000834030020C805002003780BB9CA
:10456000FFF742BFFFF780BF00231A4630B5002493
:104570000025C0E90245037000F1100100F1580464
:1045800001F8012BA1424FF00003F9D142F20F7262
:10459000A0F85830A0F87E30A0F88030A0F8822033
:1045A00080F8843080F8853080F8863080F8873055
:1045B00080F88830A0F8AE30A0F8B030A0F8B22073
:1045C00080F8B43080F8B53080F8B63080F8B73075
:1045D00080F8B830A0F8BA3080F8BC30A0F8BE300F
:1045E00030BD00230170A0F8BA30704742F20F725C
:1045F0000023A0F87E3080F8843080F8853080F881
:104600008630A0F88030A0F8822080F8883080F8CA
:104610008730704742F20F720023A0F8AE3080F866
:10462000B43080F8B53080F8B630A0F8B030A0F8DB
:10463000B22080F8B83080F8B730704708B5002352
:10464000A0F85830A0F8BA3000220023C0E90223B5
:10465000FFF7CCFFBDE80840FFF7DCBF000000001B
:10466000F8B531A3D3E900234FF6FF774FF0FF36BB
:10467000044600F10801D1E90001304039405040C2
:104680005940FFF75FFB032816D8B4F85810257877
:1046900001F2A51292B2B2F5107F01F16C039BB248
:1046A00024BFA1F19B0292B2B3F5107F24BFA1F504
:1046B000EA739BB2402022E0D4E902013040394045
:1046C0001BA3D3E9002350405940FFF73BFB0328CD
:1046D00027D8B4F85810257801F2A51292B2B2F595
:1046E000107F01F16C039BB224BFA1F19B0292B237
:1046F000B3F5107F24BFA1F5EA739BB2202045B12A
:1047000084F8B400A4F8AE10A4F8B020A4F8B23035
:10471000F8BDA4F87E10A4F88020A4F8823084F8B4
:104720008400F8BDAFF3008057D77FF7D7D50000DE
:10473000FD7DD55D7D7F00002DE9F043DFF8ECE1E4
:104740000027BC467646FCB2A24240F2EC8083F8D9
:1047500000C000EBD10401F00708257C1EF80840DA
:1047600001372540CC4304F0070445FA04F44D1CFE
:10477000ADB2B5F5107F24BFA1F23F218DB2E401A7
:104780001C704FFA84F800EBD50105F00704097C92
:10479000345D01330C40E94301F0070144FA01F1B3
:1047A0006C1C1FFA84F9B9F5107F28BFA5F23F25CC
:1047B00048EA811128BF1FFA85F94FFA81F803F8FA
:1047C000018C00EBD90109F007050C7C715D0C40F0
:1047D0006FEA090101F0070144FA01F109F101044E
:1047E00048EA41111FFA84F8B8F5107F24BFA9F2F6
:1047F0003F241FFA84F849B203F8011C00EBD804E7
:1048000008F00709257C16F8094025406FEA0804DE
:1048100004F0070445FA04F441EA041408F1010124
:104820001FFA81F9B9F5107F24BFA8F23F211FFAC2
:1048300081F964B203F8014C00EBD90109F00708D3
:104840000D7C16F8081029406FEA090505F00705E8
:1048500041FA05F544EAC50509F101041FFA84F897
:10486000B8F5107F24BFA9F23F241FFA84F86DB277
:1048700003F8015C00EBD80108F007090C7C16F87E
:1048800009100C406FEA080101F0070144FA01F138
:1048900008F101041FFA84F9B9F5107F28BFA8F2C6
:1048A0003F2445EA810128BF1FFA84F949B203F881
:1048B000011C00EBD90409F00708257C16F8084014
:1048C00025406FEA090404F0070445FA04F441EABC
:1048D000440409F101011FFA81F8B8F5107F24BFE3
:1048E000A9F23F211FFA81F864B203F8014C00EBF2
:1048F000D80108F007090D7C16F809100D406FEA81
:10490000080101F0070145FA01F10C4308F101012A
:1049100089B2B1F5107F28BFA8F23F2103F8014CFE
:1049200028BF89B20FE7BDE8F08300BF769D00087D
:1049300080F8BC1070470523B1FBF3F1A0F8BE105E
:104940007047000000F15A02222300210148FDF7C0
:10495000CDBA00BFC805002037B5B0F88230B0F836
:10496000582004469A4240F0B98090F8843000F113
:104970005B0580F85A3021222B46B0F88010FFF7F3
:10498000DBFE90F88430402B5CD101A800F000FBE6
:104990000DF107030DF10602294601A800F026FBE0
:1049A00094F8BC209DF806309A4240F0948094F828
:1049B0005A109DF807200023114384F8853084F8AD
:1049C000873084F85A101D460A2A31D8DFE802F0F1
:1049D0001A1E25303030060E0E300E002046FFF72E
:1049E000B1FF022384F88630002308E094F8863073
:1049F000022B70D12046FFF7A5FF9DF8073084F801
:104A0000883068E094F88630012B02D12046FFF709
:104A100099FF012384F886305DE094F88630012BFD
:104A200059D12046FFF78EFF002384F8863004E03A
:104A30002046FFF787FF84F8865042F20F73A4F8F0
:104A4000823048E0202B0AD1FFF77CFF012384F855
:104A50008630002384F8853084F887303BE090F876
:104A60008630002B37D090F885300133DBB20C2B29
:104A700080F8853006D91A480021FDF76DFA2046E6
:104A8000FFF7B4FD94F88630012B18D194F88730E5
:104A900004F15A02042B8DBF20230133DBB284F8CA
:104AA0005A3087BF002384F8873084F8873084F831
:104AB0005A30002122230A48FDF718FA0BE0022B96
:104AC00009D194F8883033B143F0400384F85A3068
:104AD0002046FFF737FF002384F8843003B030BD51
:104AE000C805002000F18902222301210148FDF7B9
:104AF000FDB900BFC805002037B5B0F8B230B0F836
:104B0000582004469A4240F0B98090F8B43000F141
:104B10008A0580F8893021222B46B0F8B010FFF7C3
:104B20000BFE90F8B430402B5CD101A800F030FAB5
:104B30000DF107030DF10602294601A800F056FA0F
:104B400094F8BC209DF806309A4240F0948094F886
:104B500089109DF807200023114384F8B53084F8AC
:104B6000B73084F889101D460A2A31D8DFE802F0F0
:104B70001A1E25303030060E0E300E002046FFF78C
:104B8000B1FF022384F8B630002308E094F8B63071
:104B9000022B70D12046FFF7A5FF9DF8073084F85F
:104BA000B83068E094F8B630012B02D12046FFF708
:104BB00099FF012384F8B6305DE094F8B630012BFC
:104BC00059D12046FFF78EFF002384F8B63004E069
:104BD0002046FFF787FF84F8B65042F20F73A4F81F
:104BE000B23048E0202B0AD1FFF77CFF012384F884
:104BF000B630002384F8B53084F8B7303BE090F845
:104C0000B630002B37D090F8B5300133DBB20C2B27
:104C100080F8B53006D91A480121FDF79DF92046E4
:104C2000FFF7F8FC94F8B630012B18D194F8B730A0
:104C300004F18902042B8DBF20230133DBB284F8F9
:104C4000893087BF002384F8B73084F8B73084F800
:104C50008930012122230A48FDF748F90BE0022B95
:104C600009D194F8B83033B143F0400384F8893067
:104C70002046FFF737FF002384F8B43003B030BD7F
:104C8000C8050020B0F8BA30B0F8BE2001339BB29E
:104C90009A4270B50446A0F8BA3005D994F8863027
:104CA000002B5CD0012070BDB0F858002F4EC21010
:104CB00000F0070321B1A518F65C2B7C334304E018
:104CC000F55CA3181B7C23EA050322441374D4E982
:104CD000022392185B4109B142F00102C4E90223A8
:104CE00094F8863013B194F8B6301BB92046FFF71C
:104CF000B7FC21E0237813B1B4F8AE3001E0B4F88A
:104D00007E3003F23E2292B2B2F5107F03F102032D
:104D10009BB224BFA2F5107292B2B3F5107F24BFEC
:104D2000A3F510739BB29A4202D2824204D801E0EA
:104D30008242DBD98342D9D22378204613B1FFF7D0
:104D4000DBFE01E0FFF708FEB4F8583001339BB2F8
:104D5000B3F5107F28BF0023A4F858309EE794F8DD
:104D6000B600003018BF012070BD00BF769D00085E
:104D700010B50446FFF7F8FB002384F8C030204646
:104D800010BD000038B590F8C030044693420D467F
:104D900007D080F8C0200AB1012100E01146FFF7DA
:104DA00020FC29462046FFF76DFFBDE8384001464C
:104DB0000148FEF739B900BF34030020FFF7B8BD42
:104DC000FFF7B9BDFFF73ABC811C0B46002230B596
:104DD0000270427000F1240501F8012BA9424FF046
:104DE0000004F9D1074A80F82440846202F12001CE
:104DF00052F8044B8A4243F8044BF9D112881A80C6
:104E000030BD00BFFF9D000870B50F4EC1EBC10162
:104E100073185A78847D42749A7804F00F0482746F
:104E2000DA78C2741A7902755A799B794275027CD4
:104E300023F00F0322F00F05725C234302F00F02F0
:104E40002A430274837570BDB39D000810B50446F3
:104E50001C48FBF751FA1B48FBF7BAFA80B363789A
:104E6000022B0AD0032B1FD0012B25D12222164959
:104E70001448FBF7EFF902231CE094F824102046B5
:104E8000FFF7C2FF2222A11C0E48FBF7E3F994F8BA
:104E90002430052B06D1002384F8243023787BB9F5
:104EA000032307E0013309E0222208490548FBF704
:104EB000D1F90023637010BD0023637084F824309F
:104EC00010BD00BF200F00207E9D0008DD9D000862
:104ED00007B51A4A1278622A06D0642A12D05C2AD0
:104EE00028D1FFF7B3FF25E0017839B1012114483B
:104EF000FBF7E8F91248FBF7FFF91BE01048FBF756
:104F0000E1F917E0826A0F4901328A4201D88262D0
:104F100010E00022826201A90DF106020A48FEF7A4
:104F20009BF8BDF80420BDF906305208074908482F
:104F3000FDF75AF903B05DF804FB00BF540D0020E3
:104F4000200F00206377010034030020A09D00089B
:104F5000C8050020012A08B50ED10B78012B0CBF23
:104F600001210021017009D142785AB9064A12780C
:104F70005C2A07D1437005E0042008BD02210348E4
:104F800000F006FB002008BD540D00203403002073
:104F90007047B1F5006F10D340F675404FF4802391
:104FA00021F4FF6222F007023AB1194201D15B08F5
:104FB000FBE7DA0A42435140F2E708467047000037
:104FC00010B54C780B78E40004EBC3238C7803EB2A
:104FD00054142146FFF7DDFF034B53F820006040D7
:104FE000C0F3C72010BD00BF24A00008F7B54C7B5C
:104FF00016460A7B1F46A30943EA82038DF8043054
:10500000CB7CA4009B000D7D03F03C0324F03F0407
:105010001C4344EA9514AD0025F00F0501A98DF855
:1050200005408DF80650FFF7CBFF030900F00F0095
:105030003370387003B0F0BD02F00F0242EA011184
:10504000134A70B5C9B21C7B32F811005D7B24F0A5
:105050003F04C6B244EA91041C7305F00F05B4087E
:1050600004F0300245EA81111143DA7C04F00F04A8
:1050700022F00F0214431A7D800A02F0030242EA72
:10508000861200F03C0010435973DC74187570BD33
:10509000229E000838B5114D1F2429681048E140B0
:1050A00011F0010118BF0121FBF73CFB0C48FBF795
:1050B000F8FB01210A48FBF72DFB0948FBF7F1FB40
:1050C00000210748FBF726FB14F1FF34E5D200214D
:1050D0000348BDE83840FBF725BB00BFA40F002004
:1050E0003403002010B5074C01212046FBF72EFBAE
:1050F0002046FBF7D6FB2046BDE810400021FBF719
:1051000025BB00BF3403002010B5074C0121204609
:10511000FBF724FB2046FBF7C4FB2046BDE810400C
:105120000021FBF71BBB00BF3403002010B5044671
:10513000FFF7B0FF1CB1BDE81040FFF7D3BF10BDB3
:1051400010B50446FFF7A6FF1CB1BDE81040FFF7FD
:10515000DBBF10BD01392DE9F047824604296ED826
:10516000DFE801F0031324495B006A4B6A4A1B889D
:1051700014684FF00D08B3FBF4F4E40444F0100499
:10518000DFF8EC91654E664F5FE0664B624A1B8824
:10519000146840F29D38B3FBF4F4E40444F0005486
:1051A00044F07004DFF8CC915F4E34E090F8343076
:1051B0005E4F002B5E4B5F4E08BF1F465E4B08BF25
:1051C0004FF4012346EA0306534A5C4B14681B88DC
:1051D00018BF4FF41878B3FBF4F44FEAC44408BF87
:1051E0004FF4966844F0005448F00D0844F0700401
:1051F000DFF8809129E0524B474A1B88146840F23F
:10520000FD28B3FBF4F4E40444F00054DFF86491A7
:105210004C4E44F07004454F17E04B4B3E4A1B8800
:10522000146840F2AD18B3FBF4F4E40444F0005405
:1052300044F07004DFF83C91444E454F05E04FF0D8
:105240000008C146464647464446424B424D1B680D
:105250002B60FFF71FFFFFF757FF2F60FFF71AFFC5
:10526000FFF752FF2E60FFF715FFFFF74DFF3B4B97
:105270002B60FFF70FFFFFF747FF42F2F5432B606C
:10528000FFF708FFFFF740FF5046FBF7F5FA344BF6
:105290001B682B60FFF7FEFEFFF736FF314B1B78D4
:1052A0005B0303F4FC2343F4C45343F002031C43A5
:1052B0002C60FFF7EFFEFFF727FF0E232B60FFF7B1
:1052C000E9FEFFF721FF284B2B60FFF7E3FEFFF716
:1052D0001BFFC5F80090FFF7DDFEFFF715FF3B232E
:1052E0002B60FFF7D7FEFFF70FFF4FF486732B609D
:1052F000FFF7D0FEFFF708FFC5F80080FFF7CAFEF2
:10530000FFF702FF194B2B60FFF7C4FEBDE8F04723
:10531000FFF7FABEA00F0020C00F0020942AA800BB
:1053200093414C2ABC0F002034270685D3804C2A99
:1053300093C04C2A3403408100240600B20F0020A1
:10534000B40F0020342B6600980F0020349F7400A7
:1053500013C14C2A9C0F0020A40F0020160E070535
:10536000B80F0020900F0020E93102000F000E005E
:105370003A47960C2A479E042DE9F34100238DF805
:105380000730037A0446002B00F09780FBF70EFAF3
:105390004B4B05461A68904200F08F80494F1860C9
:1053A0003B78002B33D0002836D1474A0DF1070156
:1053B00004F12000FEF71EFF444B1A781E4682F0CF
:1053C00001021A709DF807200AB1012100E0294668
:1053D000DFF804812046FBF7F5F998F80030DBB1DF
:1053E00000BF00BF00BF01212046FBF7AFF900BF9F
:1053F00000BF00BF00212046FBF7A8F9002120468E
:10540000FBF790F9002388F80030337004E018B1FE
:105410002F4B1B78002B3DD0DFF8C08098F8003070
:105420002BB12A4E337813B93B7803B1C5B1E36C85
:10543000284A0133E364136801331360B4F8503031
:10544000226C01339BB2A4F8503044F61F639A4299
:1054500084BF00232364236C7BB3013323642CE0DB
:1054600020461A21FBF716FA01212046FBF76EF9B8
:1054700000BF00BF00BF29462046FBF767F9294659
:105480002046FBF74FF90F4B88F800501D700123A1
:105490003370CCE72046FBF77DF918B101238DF876
:1054A000073001E08DF80700074B9DF807101A78C8
:1054B00004F10C00FEF750FEAEE702B0BDE8F0814B
:1054C0000C000020190F00203003002010000020E5
:1054D000180F00201C0F0020A80F0020B00F002084
:1054E0000A4B10B51B78044643B1FBF73FF9084B54
:1054F00001461A7804F10C00FEF72EFEB4F8523083
:1055000001339BB2A4F8523010BD00BF180F002029
:105510003003002010B504460121FBF79DF9094B2B
:105520001A68094B1A60FFF7B5FD01212046FBF709
:10553000DDF8064B01221A702046FBF737F90028E8
:10554000FAD110BDAC0F0020A40F0020A80F00203E
:1055500038B50C4605460021FBF77EF9094B20467D
:105560001A68094B1A60FFF7E1FD00212846FBF796
:10557000BDF834B9054B01221A701A780AB100BF80
:10558000FBE738BDB80F0020A40F0020B00F0020AB
:105590002DE9F04F612985B004460D46DFF81493DC
:1055A000A14F04D0062900F01882A04B19706AB1EF
:1055B00000212046FBF7E6F82046FBF765F9204678
:1055C0000121FBF7DFF82046FBF75EF9D9F80080F0
:1055D000974B984A43449342DFF8DCA2964B01D89C
:1055E000964A0AE0964A974942448A42F8D9964A2E
:1055F000964942448A4204D9954ACAF800200122B9
:1056000003E0944ACAF8002002221A601E68924BF6
:10561000012E0BD138680222A0F5C3301A60A038E1
:1056200002F0B0FA7CA3D3E900230AE03868012233
:10563000A0F5C3301A60A03802F0A4FA78A3D3E929
:10564000002302F03FFC02F0CDFD029002F0BCFA14
:1056500002F0CEF802F0A6FD5FFA80FB84F800B0FD
:10566000584602F0C9FE029B0146184602F00EFEA3
:105670004FF08E4102F014FF02F0A6FA774B0022A1
:1056800002F044F902F0B4F802F08CFD80B26080C0
:10569000000140EACB40724B40F09040012E186070
:1056A000404605D102F06EFA5BA3D3E9002304E083
:1056B00002F068FA5AA3D3E9002302F003FC02F0D7
:1056C00091FD834602F080FA02F092F802F06AFD42
:1056D0005FFA80F884F80480404602F08DFE0146AF
:1056E000584602F0D3FD4FF08E4102F0D9FE02F091
:1056F0006BFA5A4B002202F009F902F079F802F035
:1057000051FD80B2E080000140EAC840554B40F0B6
:105710008040042D18605CD013D8022D28D036D8D4
:10572000012D40F0D180504B4FF00D081B88DFF861
:105730008CB1B3FBF6F6F60446F010064B4B4C4A20
:10574000C8E0062D06D054D3612D40F0BD80494BF2
:105750001B780FE0484B4FF00D081B88DFF860B155
:10576000B3FBF6F6F60446F00056444B444AB1E06B
:10577000444B1B88B3FBF6F6F60446F0005646F0A1
:10578000700640F29D38DFF83CB13F4B2FE094F8B3
:1057900034303E49002B3E4B3E4A18BF1A463E4B22
:1057A00008BF4FF4012143EA01033C4908BF4FF40D
:1057B0009668098818BF4FF41878B1FBF6F6F6041E
:1057C00046F0005648F00D0846F07006DFF8F4B0D9
:1057D00080E0334B40F2FD281B88DFF8E8B0B3FBD4
:1057E000F6F6F60446F000562E4B46F03006284AF0
:1057F00070E02D4B40F2AD181B88DFF8C8B0B3FB4A
:10580000F6F6F60446F0005646F07006274B284A96
:1058100060E000BFAFF300800000000000203C41CA
:105820000000000000204C41940F0020F2020020F4
:1058300000BC6AF7FF083D00C00F002041501F0266
:105840004053F2F27F8D5B008019D0CDFFF26F06DE
:105850004150570041505300C40F00200000E03F6A
:10586000B80F0020AC0F0020A00F0020942AA80041
:1058700093414C2A060000209A0F0020845A16807B
:1058800093004F2ABC0F0020342706850024060011
:10589000D3804C2A93C04C2A34034081B20F00209D
:1058A000B40F0020342B6600980F0020349F740042
:1058B00013C14C2A880F00209C0F00203A47960CF9
:1058C0003A4796142A479E044FF00008C3464346C1
:1058D00042464646DAF80010DFF834A10393CAF8CE
:1058E00000100292FFF7D6FBFFF7FCFB029ACAF802
:1058F0000020FFF7CFFBFFF7F5FB039BCAF8003052
:10590000FFF7C8FBFFF7EEFB3B4BCAF80030FFF791
:10591000C1FBFFF7E7FB42F2F543CAF80030FFF79F
:10592000B9FBFFF7DFFB2046FAF7A6FF012120466F
:10593000FFF70EFE314B1B785B0343F4C45343F077
:1059400002031E43CAF80060FFF7A4FBFFF7CAFB7F
:105950000E23CAF80030FFF79DFBFFF7C3FB284B6F
:10596000CAF80030FFF796FBFFF7BCFBCAF800B09F
:10597000FFF790FBFFF7B6FB3B23CAF80030FFF7B9
:1059800089FBFFF7AFFB4FF48673CAF80030FFF7CF
:1059900081FBFFF7A7FBCAF80080FFF77BFBFFF74F
:1059A000A1FB184BCAF80030FFF774FBFFF79AFB16
:1059B000062D01BF009BC9F80030019B3B60124BD4
:1059C0001B78ABB1612D13D0062D11D0294620468E
:1059D00005B0BDE8F04FFFF7BDBBD9F8003000932C
:1059E0003B680193094B1B68C9F800303B60DEE55A
:1059F00005B0BDE8F08F00BF160E0705900F002020
:105A0000E93102000F000E00180F00208C0F00205B
:105A1000A40F0020014B890819707047900F0020D7
:105A20002B204143124810B5C909018017214A4370
:105A30009DF814400F49D2090A800F4A0CB1DB08C7
:105A400000E09B0813809DF808300C4A9B081380E7
:105A50009DF80C200D235343094ADB0913809DF860
:105A60001020A0235343074ADB09138010BD00BF59
:105A7000A00F0020BC0F0020B20F0020B40F0020A8
:105A8000980F00209A0F0020F8B5474D474B296822
:105A9000474A0B4493420646464B474C01D8474A77
:105AA0000AE0474A47480A448242F8D9464A0A442B
:105AB00046498A4203D9464A1A60012202E0454A11
:105AC0001A600222226022681B68012A424F434A60
:105AD0000CBF0221012111603B60FFF7DBFAFFF7E9
